:020000040800F2
:1000000058070020290200082D1C0008851A000846
:10001000291C0008D503000851200008000000003A
:10002000000000000000000000000000351C000877
:10003000D903000800000000311C0008391C00082A
:10004000430200084302000843020008430200087C
:100050004302000843020008DD03000843020008D1
:10006000430200084302000843020008430200085C
:10007000430200084302000843020008430200084C
:10008000430200084302000843020008430200083C
:10009000430200084302000843020008430200082C
:1000A000430200084302000843020008430200081C
:1000B000430200084302000843020008430200080C
:1000C00043020008430200084302000843020008FC
:1000D00043020008392000084302000843020008D8
:1000E00043020008430200084302000843020008DC
:1000F00043020008430200084302000843020008CC
:1001000043020008430200084302000843020008BB
:1001100043020008430200084302000843020008AB
:10012000430200084302000843020008430200089B
:10013000430200084302000843020008430200088B
:10014000430200084302000843020008430200087B
:10015000430200084302000843020008452000084B
:10016000430200084302000843020008430200085B
:100170004302000843020008430200080000000098
:10018000430200084302000800F002F800F03CF8C7
:100190000AA090E8000C82448344AAF10107DA45E2
:1001A00001D100F031F8AFF2090EBAE80F0013F0F8
:1001B000010F18BFFB1A43F001031847841F00000A
:1001C000A41F0000103A24BF78C878C1FAD852079B
:1001D00024BF30C830C144BF04680C6070470000C1
:1001E0000023002400250026103A28BF78C1FBD840
:1001F000520728BF30C148BF0B6070471FB501F0E0
:1002000086FF1FBD10B510BD00F0A9F81146FFF71D
:10021000F5FF01F01FFF00F0C7F803B4FFF7F2FF8E
:1002200003BC00F0CFF800000948804709480047A8
:10023000FEE7FEE7FEE7FEE7FEE7FEE7FEE7FEE796
:10024000FEE7FEE704480549054A064B70470000F3
:10025000ED1C000889010008580100205807002003
:10026000580300205803002053EA020C00F0698074
:100270002DE9F04B4FF00006002B1FBFB3FA83F5BA
:1002800003FA05F424FA05F65E4012BF1643B2FAEB
:1002900082F502FA05F4C5F120051EBF22FA05FC1D
:1002A00044EA0C04203556EA044C4FEA144418BFC3
:1002B000641C4FF000084FF00009904271EB030CF2
:1002C00039D3002919BFB1FA81F701FA07F6B0FA5C
:1002D00080F700FA07F6C7F120071EBF20FA07FCD7
:1002E00046EA0C062037B6FBF4FCA7EB0507103FE7
:1002F00007F01F0BCBF120062CFA06F60CFA0BFBCD
:1003000044BFB3460026202FA4BF5E464FF0000B2B
:100310005BEA060C08BF4FF0010B19EB0B0948EB29
:100320000608ABFB027C06FB02CC0BFB03CCC01B1C
:1003300071EB0C01C1E70B46024641464846BDE859
:10034000F08B13B5084318BF4FF0FF300146AFF3F1
:100350000080BDE81C407047704770477047754685
:1003600000F02CF8AE4605006946534620F0070021
:10037000854618B020B5FFF765FFBDE820404FF077
:1003800000064FF000074FF000084FF0000BAC469E
:10039000ACE8C009ACE8C009ACE8C009ACE8C009E9
:1003A00021F007018D46704710B50446AFF3008079
:1003B0002046BDE81040FFF730BF000000487047FE
:1003C0001000002001491820ABBEFEE72600020005
:1003D00070470000FEE7000070470000012000F0B9
:1003E0007DB80000EFF3108072B600BFFEE700009A
:1003F00070B5866D044600F057F994F8351002295F
:1004000028D105462068216C026822F0160202609D
:10041000426922F08002426109B9A16C19B10168F8
:1004200021F008010160016821F00101016000BFB5
:1004300020680068C00715D000F036F9401B062878
:10044000F6D320206065032084F83500002184F86D
:10045000341070BD802060650120002184F83410C4
:1004600070BD00BFE06D3F2101FA00F0B0600120D7
:1004700084F835000020002184F8341070BD00009D
:1004800090F83510022909D1052180F8351000684F
:10049000016821F001010160002070478021416561
:1004A0000120704710B540F27004C2F200042068C9
:1004B0002146020A606001F8080F6272020C000E09
:1004C000E07240F20810A272C2F2000004220A2375
:1004D00001F092F920680130206010BD43F614410C
:1004E000C4F201010A68024214BF08607047FFF7B6
:1004F000D9BF00002DE9F04F82B000F13E4241F635
:10050000004502F1FF77C4F20205082243F6004ECF
:100510004FEAB726A84208BF0722C4F2010E072EF1
:1005200038BF4FEAB7220125002600274FF0000808
:10053000009208E008F101080437B8F1100F06F145
:10054000020600F0A7800C6805FA08F914EA090F02
:10055000F0D0D1F804B003220BF0030CACF101048D
:10056000B240012C6FEA020A10D88268CC6802EA15
:100570000A02B440224382604268CBF3001422EAAC
:10058000090204FA08F42243426005E0BCF1030FBB
:1005900002D14FF0030C20E0C2688C6802EA0A0224
:1005A000B4402243BCF1020FC26016D16FF00302C7
:1005B00002EA58020244D2F820C007F01C050F23BB
:1005C0000C69AB402CEA030304FA05F52B431362D4
:1005D000D1F804B001250BF0030C02680CFA06F305
:1005E00002EA0A021A431BF4403F0260A2D0002232
:1005F00043F644030192C4F202031A684FF6084C12
:1006000042F480421A601A68CFF6FF7C02F48042FE
:100610000192019A28F00302724452F80C3007F05C
:100620000C050F24AC40A343009C04FA05F52B43B2
:1006300042F80C30DEF808204B6842EA090543F620
:100640000C4CDC0258BF22EA0905CEF80850C4F26F
:10065000010CDCF800209C0242EA090558BF22EA9E
:100660000905CCF80050DEF804209C0342EA090595
:1006700058BF22EA0905CEF80450DEF80020DB035B
:1006800042EA090558BF22EA0905CEF800500125C3
:1006900050E700BF02B0BDE8F08F0000002A08BF9D
:1006A000090481617047000040F25010C2F200005E
:1006B0000068704740F2000040F25011C2F20000A2
:1006C000C2F2000100780A68104408607047000018
:1006D00080B543F60040C4F20200016841F40071A5
:1006E0000160016841F480610160016841F480713A
:1006F0000160032000F088F80F2000F005F800F0FA
:1007000027F8002080BD000070B540F20006C2F25C
:10071000000640F208013278C2F200014FF47A7309
:100720000968B3FBF2F20446B1FBF2F1084600F0AF
:1007300043FB0F2C4FF0010508D838B94FF0FF30BC
:1007400021460022002500F033F87460284670BD71
:1007500082B0002043F640010190C4F202014A68D1
:1007600042F480424A604A6802F480420192019A4F
:100770000090086840F080500860086800F08050E1
:100780000090009802B07047002848BF7047C1B27F
:1007900000F01F00012202FA00F04EF20012CEF229
:1007A000000242EAD10121F0030108607047000015
:1007B00010B54EF60C5CCEF2000CDCF80030C3F342
:1007C000022E8EF00704042C28BF0424BEF103037C
:1007D0004FF0FF3E0EFA04F438BF0023A1439940C6
:1007E0000EFA03F39A43114300F00F0200F1604345
:1007F0000901043A03F564436244002848BF02F14A
:100800000C03197010BD00004EF60C51CEF2000121
:100810000A684FF6FF031A4060F30A2242F0806034
:1008200040F0FD70086070472DE9F041002800F0AD
:100830008B8043F60808C4F202080446D8F8F8038F
:100840000D4600F00700884207D288F8F853D8F820
:10085000F80300F00700A84276D12068810717D579
:10086000410705D5D8F8001041F4E051C8F8001050
:10087000010705D5D8F8001041F46041C8F8001010
:10088000D8F80010A26821F0F0011143C8F8001058
:10089000C0073FD1D8F8F80300F00700A84207D9F5
:1008A00088F8F853D8F8F80300F00700A8424BD1B5
:1008B0002068410707D5D8F80010E26821F4E0511C
:1008C0001143C8F80010000708D5D8F800002169C6
:1008D00020F4604040EAC100C8F8000000F07CF855
:1008E000D8F8001042F22812C1F30311C0F600023A
:1008F000515C40F2080220FA01F140F20400C2F219
:1009000000000068C2F200021160FFF7FDFE002047
:10091000BDE8F0816068811E022907D258F8081CE2
:1009200089015CBF0120BDE8F08111E0012807D1F9
:1009300058F8081C89035CBF0120BDE8F08107E07E
:1009400058F8081C890703D40120BDE8F08100BFD6
:10095000D8F8001021F003010843C8F80000FFF7A1
:10096000A3FE064641F28837D8F80000616800F01F
:100970000C00B0EB810F8DD0FFF796FE801BB842C4
:10098000F2D90320BDE8F08140F2080043F60801E7
:10099000C2F20000C4F202010068096842F2381293
:1009A000C1F38221C0F60002515CC84070470000CC
:1009B00040F2080043F60801C2F20000C4F202014E
:1009C0000068096842F23812C1F34231C0F60002F1
:1009D000515CC8407047000010B543F60404C4F2EF
:1009E0000204606800F00C0008280BD0042819BF2E
:1009F00042F20040C0F2F40041F60030C0F2B7000D
:100A000010BD00BF206821682368490241F600310B
:100A1000C0F2B70100F03F02C3F388105CBF42F29E
:100A20000041C0F2F401A1FB00010023FFF71CFC10
:100A300021680222C1F3014102EB4101B0FBF1F058
:100A400010BD00002DE9F04182B0002868D00446B6
:100A5000007843F60006C007C4F202060BD0B06867
:100A600000F00C00042840F09F803068800302D51D
:100A70006068002854D0207880071AD5B06810F03C
:100A80000C0F09D0B06800F00C00082840F0A680D8
:100A90007068400200F1A2803068800702D5E068EB
:100AA00001283DD13068216920F0F80040EAC100FA
:100AB00030602078000737D4207840074CD4A569EF
:100AC00055B3B06800F00C00082840F0BB80012D41
:100AD00026D07068E16900F480028A4220D1216A40
:100AE00000F03F028A421BD147F6C071626A0140A2
:100AF000B1EB821F14D1A16A4FF6FF73C90399436A
:100B000000F44032A1F580318A4209D1E16A00F057
:100B10007060B0EB016F03D1002002B0BDE8F0813E
:100B2000012002B0BDE8F0816069002840F20000B9
:100B3000C4F2472076D00121C0F8801EFFF7B4FD33
:100B4000054600BF706F8007B6D4FFF7ADFD401BB0
:100B50000228F7D9DDE000BF306C10F080580AD1D0
:100B600000200190306C40F080503064306C00F018
:100B700080500190019847F20007C4F200073868DE
:100B8000C00541D4386840F480703860FFF78CFDB0
:100B9000054600BF3868C00536D4FFF785FD401B09
:100BA0000228F7D9B5E000BFB06800F00C000828B3
:100BB00003D1706840023FF558AF6068B0F5803FE0
:100BC00007D0B0F5A02F40F08D80306840F4802031
:100BD0003060306840F4803030608DE0E06800289C
:100BE00052D00020C4F2472001210160FFF75CFDD4
:100BF000054600BF306880073FF554AFFFF754FD4E
:100C0000401B0228F6D984E0A068012805D00528F9
:100C10004ED1306F40F004003067306F40F001007B
:100C200030674FE00021C0F8801EFFF73DFD05460C
:100C3000706F80077FF540AFFFF736FD401B02283D
:100C4000F6D966E00027C4F2472700203866FFF790
:100C50002BFD022D05460BD1306880015ED5FFF7D4
:100C600023FD401B02284FF00300F5D955E700BFD4
:100C7000306880017FF550AFFFF716FD401B02285A
:100C80004FF00300F4D948E70020C4F247200021C8
:100C90000160FFF709FD0546306880077FF509AF61
:100CA000FFF702FD401B02284FF00300F4D934E7A0
:100CB000316F002821F001013167316F21F004010B
:100CC00031674DD0FFF7F0FC054641F2883700BF91
:100CD000306F800756D4FFF7E7FC401BB842F7D9C6
:100CE00017E000BF3168002821F48031316031689D
:100CF00021F4802131604FD0FFF7D6FC054600BFBC
:100D0000306880033FF5B7AEFFF7CEFC401B642888
:100D1000F6D9032002B0BDE8F08100BF04F11C0544
:100D20002FCD084340EA8210D9034FF6FF7291435A
:100D3000A1F5803140EA0560084370600120386603
:100D4000FFF7B2FC044600BF306880013FF5E4AE17
:100D5000FFF7AAFC001B02284FF00300F4D9DCE6E1
:100D6000FFF7A2FC054641F2883700BF306F8007CD
:100D700008D5FFF799FC401BB8424FF00300F5D9A6
:100D8000CBE600BFB8F1000F7FF499AE306C20F0D5
:100D90008050306493E600BFFFF786FC054600BF35
:100DA000306880037FF567AEFFF77EFC401B642848
:100DB0004FF00300F4D9B0E6411E0020B0EB116FF4
:100DC0001CBF012070474EF21002CEF200025160AB
:100DD0004EF62351CEF20001F0230B7007219060F4
:100DE0001160704710B590F83C20012A4FF00202C4
:100DF00051D080F83D200268D2F804E0D2F808C053
:100E00000C682EF07003234341F2FF74C4F2000417
:100E1000A24253600EDC40F2FF73C4F200039A4218
:100E200016DCB2F1804F2BD040F20043C4F2000335
:100E300024E000BF40F2FF33C4F201039A4213DC06
:100E400041F60003C4F200039A4219D0002313E0D4
:100E500040F60003C4F200039A4211D040F600436A
:100E6000C4F200030AE000BF44F20003C4F201032D
:100E70009A4205D040F20043C4F201039A4204D1E1
:100E800049682CF08003194391600121002280F809
:100E90003D1080F83C20104610BD0000002804BF23
:100EA0000120704710B5044690F83D0028B9002095
:100EB00084F83C00204600F01FF8022084F83D0032
:100EC0002068211D00F01CFF012084F8460084F8F2
:100ED0003E0084F83F0084F8400084F8410084F824
:100EE000420084F8430084F8440084F8450084F804
:100EF0003D00002010BD000081B000680021C4F258
:100F00000101884202D001B0704700BF002000906C
:100F100043F64400C4F20200016841F0010101609F
:100F2000006800F001000090009801B070470000D8
:100F300080B590F83C20012A4FF0020200F0C280F8
:100F400080F83D20D0F800C04FF67772DCF808300A
:100F500023EA0202CCF808200B684F2B28DC1F2B59
:100F600044DD202B45D0302B43D0402B40F0AC80CB
:100F7000D1F804E0C968DCF82030DCF8202022F049
:100F80000102CCF82020DCF8182022F0F00242EA1E
:100F9000011123F00A0242EA0E02CCF81810CCF834
:100FA0002020DCF8081041F0470121F0300180E0FA
:100FB0006F2B27DDB3F5005F48D0B3F5805F7AD0A3
:100FC000702B40F08180D1E901E3C968DCF808208A
:100FD00043EA0E0322F47F4243EA01211143CCF895
:100FE0000810DCF8081041F0770162E00BB1102B1B
:100FF0006AD1DCF8081021F07001194341F00701B3
:1010000057E000BF502B35D0602B5DD1D1F804E004
:10101000C968DCF8203023F01003CCF82030DCF86D
:101020001830DCF8202023F4704322F0A00243EAB9
:10103000013142EA0E12CCF81810CCF82020DCF86E
:10104000081041F0670121F0100132E0D1E901E31D
:10105000C968DCF8082043EA0E0322F47F4243EA21
:1010600001211143CCF80810DCF8081041F480414C
:101070001FE000BFD1F804E0C968DCF82030DCF8DC
:10108000202022F00102CCF82020DCF8182022F0E9
:10109000F00242EA011123F00A0242EA0E02CCF801
:1010A0001810CCF82020DCF8081041F0570121F08E
:1010B0002001CCF808100022012180F83D10002109
:1010C00080F83C10104680BD0122F5E77047000013
:1010D00070470000B0B582B0044600680168C3687C
:1010E000426901F02F05202D03F0200506D12DB116
:1010F000204602B0BDE8B04000F0A6BE5FEA017C29
:101100001EBF02F0010E03F4907212EB0E0253D1D7
:10111000226B012A05D111F0100218BF13F0100242
:1011200036D10A0622D513F080021FD094F83D1064
:1011300021293FD1A168B1F5805F03D12169002940
:1011400000F07282216A4A1C226209784160E18CB7
:1011500001390A04E1842DD1C16821F08001C16008
:10116000C16841F04001C16002B0B0BD490621D55F
:1011700013F040011ED0C16821F04001C160202160
:10118000204684F83D1002B0BDE8B04000F078BCC5
:101190000021019101680191416801910199406923
:1011A000400613D4A08DE18DE28D002A18BF88423D
:1011B00040F0BE8102B0B0BDCA0718BF13F4807200
:1011C00040F0BA804A0700F1BD80C2E0A16B086818
:1011D000426893B2002BEDD0A08D8342EAD2E28523
:1011E000C969B1F5807F00F09D80206850E8030F49
:1011F000216820F4807041E80302DAB1206850E8E9
:10120000030F216820F4807041E8030292B1206846
:1012100050E8030F216820F4807041E803024AB1CE
:10122000206850E8030F216820F4807041E8030231
:10123000002ADAD1206850E8050F216820F001006B
:1012400041E80502DAB1206850E8050F216820F076
:10125000010041E8050292B1206850E8050F2168BD
:1012600020F0010041E805024AB1206850E8050F6E
:10127000216820F0010041E80502002ADAD1206847
:1012800050E8050F216820F0400041E80502DAB17E
:10129000206850E8050F216820F0400041E8050271
:1012A00092B1206850E8050F216820F0400041E825
:1012B00005024AB1206850E8050F216820F040007F
:1012C00041E80502002ADAD1202084F83E000020FF
:1012D0002063206850E8030F216820F0100041E8E7
:1012E0000302DAB1206850E8030F216820F01000F3
:1012F00041E8030292B1206850E8030F216820F012
:10130000100041E803024AB1206850E8030F216849
:1013100020F0100041E80302002ADAD1A06BFFF7A9
:1013200067F8A08DE18D401A81B2204602B0BDE879
:10133000B040FFF7CBBE00BF226C42F00102226436
:101340004A0706D5BEF1000F03D0226C42F002021C
:1013500022648A0706D5BEF1000F03D0226C42F04A
:1013600004022264BCF1000F09D545EA0E02B2FA6C
:1013700082F2520903D1226C42F008022264226CEC
:10138000002A3FF417AF11F0200118BF002D03D041
:10139000204600F059FD20684069216C00F04000B3
:1013A00001F00801401800F0B58000BF206850E847
:1013B000030F216820F4907041E80302BAB320685B
:1013C00050E8030F216820F4907041E8030272B3E3
:1013D000206850E8030F216820F4907041E8030270
:1013E0002AB3206850E8030F216820F4907041E888
:1013F0000302002ADAD11AE0206850E8050F2168BC
:1014000020F0010041E80502DAB1206850E8050F3C
:10141000216820F0010041E8050292B1206850E8FF
:10142000050F216820F0010041E805024AB120685B
:1014300050E8050F216820F0010041E80502002A6C
:10144000DAD1206B012824D1206850E8030F2168ED
:1014500020F0100041E80302DAB1206850E8030FE1
:10146000216820F0100041E8030292B1206850E8A2
:10147000030F216820F0100041E803024AB1206800
:1014800050E8030F216820F0100041E80302002A11
:10149000DAD1202084F83E000020206320684069D3
:1014A00040063FD5206850E8050F216820F0400035
:1014B00041E80502DAB1206850E8050F216820F004
:1014C000400041E8050292B1206850E8050F21680C
:1014D00020F0400041E805024AB1206850E8050FBD
:1014E000216820F0400041E80502002ADAD1A06B13
:1014F000C0B141F63D61C0F600010165FEF7C0FFD5
:1015000000283FF457AEA06B016D02B0BDE8B040BB
:10151000084700BF2046FFF7DBFD0020206402B033
:10152000B0BD00BF204602B0BDE8B040FFF7D0BD5F
:10153000401A216851E8031F226821F4907142E8A3
:101540000313DBB1216851E8031F226821F4907175
:1015500042E8031393B1216851E8031F226821F484
:10156000907142E803134BB1216851E8031F2268D0
:1015700021F4907142E80313002BDAD1216851E87D
:10158000051F226821F0010142E80513DBB1216843
:1015900051E8051F226821F0010142E8051393B1CB
:1015A000216851E8051F226821F0010142E8051376
:1015B0004BB1216851E8051F226821F0010142E882
:1015C0000513002BDAD1202184F83E10002121637D
:1015D000216851E8031F226821F0100142E803133B
:1015E000002B3FF4A1AE216851E8031F226821F0CF
:1015F000100142E80313002B3FF496AE216851E836
:10160000031F226821F0100142E80313002B3FF46E
:101610008BAE216851E8031F226821F0100142E8D7
:101620000313002BD4D17FE6216A31F8022B6FF32C
:101630005F22426021628AE5002804BF01207047D2
:1016400010B5044690F83D0028B9002084F83C000D
:10165000204600F021F8242084F83D002068C1686D
:1016600021F40051C160204600F06EFC2068016941
:1016700021F490410161416921F02A014161C16871
:1016800041F40051C16000202021206484F83D1005
:1016900084F83E1010BD000010B586B0006841F21D
:1016A0000042C4F2010200219042CDE90411CDE9CB
:1016B0000211019126D041F20001C4F201018842D9
:1016C00055D1002043F630010090C4F202014A696E
:1016D000252442F010024A614A6902F01002009289
:1016E000009A00900868C02240F002000860086874
:1016F000072100F002000090009840F20040C4F280
:10170000020021E043F630000091C4F20200426979
:10171000472442F020024261426902F02002009216
:10172000009A009101684FF4844241F04001016049
:101730000068082100F040000090009840F200404E
:10174000C4F2020000F5A05001920222029200228F
:1017500003920322CDE9042101A9FEF7CBFE204626
:1017600000210022FFF724F82046FFF70DF806B00D
:1017700010BD000090F83E30202B0BD100294FF017
:10178000010318BF002A01D11846704790F83C3079
:10179000012B01D1022070470023036381622221C3
:1017A0008285C285036480F83E100269016880F872
:1017B0003C301AB1C86840F48070C86048690023A2
:1017C00040F001004861C86840F02000C860184639
:1017D0007047000040F20811C2F20001884218BFB1
:1017E000704740F2081040F24C11C2F20000C2F201
:1017F00000010122FFF7BEBF2DE9F04381B004468E
:1018000090F83D0020280DD10F4600294FF001002F
:1018100000F0DD801646002A00F0D98094F83C00E4
:10182000012803D1022001B0BDE8F083012084F833
:101830003C000020206421201D4684F83D00FEF776
:1018400033FFA684E684A1680646B1F5805F03D124
:101850002069002800F01081B8460027002084F895
:101860003C00E18C2068002900F0908005F101091E
:101870000DE000BFB8F1000F28D018F8011B41603F
:10188000E18C0139E184E18C002900F07F8001685E
:101890000906EFD4B9F1000F0AD0FDB1FEF704FF3D
:1018A000801BA8421AD8206801680906F6D5E1E72E
:1018B00001680906DED4016809065CBF01685FEAB9
:1018C0000161D7D401680906F2D5D3E737F8021BC6
:1018D0004FF000086FF35F21D1E700BF206850E8A8
:1018E000030F216820F4D07041E80302BAB32068E6
:1018F00050E8030F216820F4D07041E8030272B36E
:10190000206850E8030F216820F4D07041E80302FA
:101910002AB3206850E8030F216820F4D07041E812
:101920000302002ADAD11AE0206850E8050F216886
:1019300020F0010041E80502DAB1206850E8050F07
:10194000216820F0010041E8050292B1206850E8CA
:10195000050F216820F0010041E805024AB1206826
:1019600050E8050F216820F0010041E80502002A37
:10197000DAD1202084F83D0084F83E00002084F86D
:101980003C00032001B0BDE8F08300BF01684906B8
:1019900019D4FDB1691C0DD10168490613D4016841
:1019A00049065CBF01685FEA41610CD401684906E1
:1019B000F2D508E0FEF778FE801BA8420AD820681E
:1019C00000684006F6D5202084F83D00002001B0D4
:1019D000BDE8F083206850E8030F216820F4D07040
:1019E00041E80302E2B3206850E8030F216820F4C5
:1019F000D07041E803029AB3206850E8030F2168D1
:101A000020F4D07041E8030252B3206850E8030F7D
:101A1000216820F4D07041E80302002ADAD11FE0E7
:101A2000206850E8050F216820F0010041E8050218
:101A3000002A9ED0206850E8050F216820F00100A0
:101A400041E80502002A3FF494AF206850E8050FF2
:101A5000216820F0010041E80502002A3FF489AF27
:101A6000206850E8050F216820F0010041E80502D8
:101A7000002AD5D17DE700BF4FF00008EEE6000058
:101A800070470000FEE7000070B586B0002543F601
:101A9000300005950095C4F20200016841F600444B
:101AA00041F0400101600168C4F2020401F040010C
:101AB0000091009900950168002241F00101016048
:101AC00001684FF4E05601F0010100910099009582
:101AD000016841F002010160016801F0020100911A
:101AE00000990095016841F08001016000684FF4A1
:101AF000E05100F08000009000982046FEF7CEFDF7
:101B000001960126CDE90265049501AD20462946DE
:101B1000FEF7F0FC4FF48810CDE90206A4F5E05082
:101B200029460196FEF7E6FC062000210022FEF77A
:101B30003FFE0620FEF728FE06B070BD80B586B0D9
:101B400040F27C0000220021C2F20000C4F2010237
:101B50004FF6FF730591CDE90311CDE90011C0E9FE
:101B60000021C0E90213C0E904118161FFF796F971
:101B7000002818BFFEF736FC4FF48050029040F268
:101B80007C00C2F2000002A9FFF7D2F9002818BFBA
:101B9000FEF728FC40F27C00C2F200006946FFF725
:101BA00021F9002818BFFEF71DFC06B080BD00001B
:101BB00080B540F2C40041F20001C2F20000C4F25C
:101BC000010100234FF00C0C4FF4E13280E80E00CD
:101BD000C0E90333C0E905C3C361FFF72DFD002849
:101BE00008BF80BDBDE88040FEF7FCBB80B540F279
:101BF000081041F20041C2F20000C4F201010023CA
:101C00004FF00C0C4FF4E13280E80E00C0E90333D2
:101C1000C0E905C3C361FFF70FFD002808BF80BD01
:101C2000BDE88040FEF7DEBBFEE70000FEE70000F7
:101C30007047000070470000FEF73CBDB0B592B0A1
:101C4000002443F64000CDE90A44CDE90844059458
:101C5000CDE90344CDE901440094C4F202000168D7
:101C6000022541F080510160006800F08050009032
:101C7000009847F200000094C4F20000016841F4AB
:101C800080410160006800F48040009000980120CD
:101C900006904FF4803007904FF480000D9006209E
:101CA0000E90A820CDE90F050420119006A80C95F0
:101CB000FEF7C8FE20B1EFF3108072B6FEE700BF5A
:101CC0000F20CDE901054FF4A05004904FF480504F
:101CD000059001A805210394FEF7A6FD20B1EFF3BE
:101CE000108072B6FEE700BF12B0B0BD4EF688504D
:101CF000CEF20000016841F47001016070470000FD
:101D000010B540F6FF3E0368C4F2000E40F2004CEE
:101D10007045C4F2010C27DCB0F1804F31D040F2A5
:101D20000042C4F2000290422BD040F60002C4F2FE
:101D30000002904225D041F6FF72C4F200029042A8
:101D400029DC70453CDCB0F1804F5FD040F20042AE
:101D5000C4F20002904259D040F60002C4F20002E0
:101D6000904253D056E000BF40F60042C4F2000259
:101D7000904206D0604504D00022C4F20102904295
:101D8000D9D14A6823F07003134341F6FF72C4F2BD
:101D900000029042D5DD43F6FF72C4F20102904288
:101DA00022DC42F20002C4F2000290422ED0002255
:101DB000C4F20102904229D0604527D02AE000BF3A
:101DC00040F60042C4F2000290421FD041F60002E9
:101DD000C4F20002904219D041F60042C4F200025F
:101DE000904213D016E000BF44F20002C4F2010298
:101DF00090420BD044F60002C4F20102904205D09A
:101E000044F20042C4F20102904203D1CA6823F4B2
:101E10004073134323F080024B69D1F800E08C68D3
:101E20001A430260C46240F48062C0F828E0624550
:101E300004BF096901630121416110BD806B00216C
:101E4000C185C184FFF744B981B090F83E102229C2
:101E500021D183680246B3F5805F09D152F8281F6B
:101E600052F8183C002B63D003685B680AE000BF9F
:101E700052F8281F13B90369002BF5D003685B687B
:101E800003F07F030B70116801311160C18D0139BE
:101E90000A04C18502D001B0704700BF0168CA685A
:101EA00022F02002CA60CA6822F48072CA604A69BD
:101EB00022F001024A61202180F83E10016B0129C5
:101EC0003ED10021016300BF016851E8031F026891
:101ED00021F0100142E80313DBB1016851E8031F50
:101EE000026821F0100142E8031393B1016851E840
:101EF000031F026821F0100142E803134BB101688F
:101F000051E8031F026821F0100142E80313002B7F
:101F1000DAD101680A68D20606D5002200920A6862
:101F20000092496800910099818D01B0FFF7CEB809
:101F3000026852686FF35F2221F8022B8162A5E7E5
:101F400001B0FFF747BC000010B504460068D4E9B3
:101F500002C22369016921F44051114301616269A0
:101F600043EA0C01E3691143C268194349F20C6367
:101F70009A431143C1604169A26921F4407141F261
:101F80000043114340F48062C4F201039A4241616C
:101F900002D1FEF70DFD01E0FEF7F6FCE169636892
:101FA0001922B1F5004FA0FB020123D15A00DB0F2B
:101FB000FEF75AF948F21F51C5F2EB11A0FB0123BD
:101FC0005A094FF69C73C0F6FF7303F1805302FB6E
:101FD0000300322303EBC000A0FB01014FF4F870B3
:101FE00000EA111000EB0210C1F34211084421680D
:101FF000886010BD9A009B0FFEF736F948F21F511A
:10200000C5F2EB11A0FB01235A094FF69C73C0F6F1
:10201000FF7302FB0300322303EB0010A0FB01015E
:10202000F02000EA511000EB0210C1F34311084404
:102030002168886010BD000040F2C400C2F20000B8
:10204000FFF748B840F20810C2F20000FFF742B8AC
:10205000FEE7000041F60044C4F20204FEF738FB3C
:10206000FFF7ECFDFFF710FDFFF768FDFFF7A0FDA0
:10207000FFF7BCFD40F2C400C2F20000006840F26D
:102080000815C168C2F2000541F02001C160C168B5
:10209000012241F01001C1602868C16841F02001AF
:1020A000C160C16841F01001C16020464FF4805109
:1020B000FEF7F4FA20464FF400610122FEF7EEFA33
:1020C00020464FF480610122FEF7E8FA40F24C16F8
:1020D000C2F20006284631460122FFF74BFB00BF43
:1020E00030784FF48051B0FA80F0450920462A46F6
:1020F000FEF7D4FA20464FF400612A46FEF7CEFAE6
:1021000020464FF480612A46FEF7C8FAE8E7F1EE70
:10211000100A4FF6FF71C0F2C03120EA010040F012
:102120004070E1EE100A704700000000000000005F
:10213000010203040607080900000000010203046D
:10214000602100080000002010000000C401000809
:10215000702100081000002048070000E00100087E
:1021600001000000100000000024F4000000000046
:040000050800018965
:00000001FF
